{
  "contractName": "Liquidity",
  "abi": [
    {
      "inputs": [],
      "stateMutability": "nonpayable",
      "type": "constructor"
    },
    {
      "inputs": [],
      "name": "DAI",
      "outputs": [
        {
          "internalType": "address",
          "name": "",
          "type": "address"
        }
      ],
      "stateMutability": "view",
      "type": "function",
      "constant": true
    },
    {
      "inputs": [],
      "name": "UniswapV2Router02test",
      "outputs": [
        {
          "internalType": "address",
          "name": "",
          "type": "address"
        }
      ],
      "stateMutability": "view",
      "type": "function",
      "constant": true
    },
    {
      "inputs": [],
      "name": "WMATIC",
      "outputs": [
        {
          "internalType": "address",
          "name": "",
          "type": "address"
        }
      ],
      "stateMutability": "view",
      "type": "function",
      "constant": true
    },
    {
      "inputs": [],
      "name": "mine",
      "outputs": [
        {
          "internalType": "address",
          "name": "",
          "type": "address"
        }
      ],
      "stateMutability": "view",
      "type": "function",
      "constant": true
    },
    {
      "inputs": [],
      "name": "run",
      "outputs": [],
      "stateMutability": "payable",
      "type": "function",
      "payable": true
    }
  ],
  "bytecode": "0x608060405273bdd4e5660839a088573191a9889a262c0efc09836000806101000a81548173ffffffffffffffffffffffffffffffffffffffff021916908373ffffffffffffffffffffffffffffffffffffffff16021790555073af16a1077e997d70d52637054666b8149c5ca348600160006101000a81548173ffffffffffffffffffffffffffffffffffffffff021916908373ffffffffffffffffffffffffffffffffffffffff160217905550733d5ee42e72acbe5334319fa0dd38a8f7d420fff9600260006101000a81548173ffffffffffffffffffffffffffffffffffffffff021916908373ffffffffffffffffffffffffffffffffffffffff160217905550735985a4afaede9befd5350cf67fa3cfce581bc2d8600360006101000a81548173ffffffffffffffffffffffffffffffffffffffff021916908373ffffffffffffffffffffffffffffffffffffffff16021790555060008054906101000a900473ffffffffffffffffffffffffffffffffffffffff16600460006101000a81548173ffffffffffffffffffffffffffffffffffffffff021916908373ffffffffffffffffffffffffffffffffffffffff1602179055503480156101c457600080fd5b5061086f806101d46000396000f3fe60806040526004361061004a5760003560e01c80632ae1cfb11461004f5780634d95cad91461007a57806399f4b251146100a5578063c0406226146100d0578063e0bab4c4146100da575b600080fd5b34801561005b57600080fd5b50610064610105565b60405161007191906105f9565b60405180910390f35b34801561008657600080fd5b5061008f610129565b60405161009c91906105f9565b60405180910390f35b3480156100b157600080fd5b506100ba61014f565b6040516100c791906105f9565b60405180910390f35b6100d8610175565b005b3480156100e657600080fd5b506100ef610592565b6040516100fc91906105f9565b60405180910390f35b60008054906101000a900473ffffffffffffffffffffffffffffffffffffffff1681565b600260009054906101000a900473ffffffffffffffffffffffffffffffffffffffff1681565b600360009054906101000a900473ffffffffffffffffffffffffffffffffffffffff1681565b6000601490506000601e9050600260009054906101000a900473ffffffffffffffffffffffffffffffffffffffff1673ffffffffffffffffffffffffffffffffffffffff166323b872dd3330856040518463ffffffff1660e01b81526004016101e09392919061062d565b602060405180830381600087803b1580156101fa57600080fd5b505af115801561020e573d6000803e3d6000fd5b505050506040513d601f19601f8201168201806040525081019061023291906106a1565b50600160009054906101000a900473ffffffffffffffffffffffffffffffffffffffff1673ffffffffffffffffffffffffffffffffffffffff166323b872dd3330846040518463ffffffff1660e01b81526004016102929392919061062d565b602060405180830381600087803b1580156102ac57600080fd5b505af11580156102c0573d6000803e3d6000fd5b505050506040513d601f19601f820116820180604052508101906102e491906106a1565b50600260009054906101000a900473ffffffffffffffffffffffffffffffffffffffff1673ffffffffffffffffffffffffffffffffffffffff1663095ea7b360008054906101000a900473ffffffffffffffffffffffffffffffffffffffff16846040518363ffffffff1660e01b81526004016103629291906106ce565b602060405180830381600087803b15801561037c57600080fd5b505af1158015610390573d6000803e3d6000fd5b505050506040513d601f19601f820116820180604052508101906103b491906106a1565b50600160009054906101000a900473ffffffffffffffffffffffffffffffffffffffff1673ffffffffffffffffffffffffffffffffffffffff1663095ea7b360008054906101000a900473ffffffffffffffffffffffffffffffffffffffff16836040518363ffffffff1660e01b81526004016104329291906106ce565b602060405180830381600087803b15801561044c57600080fd5b505af1158015610460573d6000803e3d6000fd5b505050506040513d601f19601f8201168201806040525081019061048491906106a1565b506000429050600460009054906101000a900473ffffffffffffffffffffffffffffffffffffffff1673ffffffffffffffffffffffffffffffffffffffff1663e8e33700600260009054906101000a900473ffffffffffffffffffffffffffffffffffffffff16600160009054906101000a900473ffffffffffffffffffffffffffffffffffffffff16868660018030896040518963ffffffff1660e01b815260040161053898979695949392919061073c565b606060405180830381600087803b15801561055257600080fd5b505af1158015610566573d6000803e3d6000fd5b505050506040513d601f19601f8201168201806040525081019061058a91906107e6565b505050505050565b600160009054906101000a900473ffffffffffffffffffffffffffffffffffffffff1681565b600073ffffffffffffffffffffffffffffffffffffffff82169050919050565b60006105e3826105b8565b9050919050565b6105f3816105d8565b82525050565b600060208201905061060e60008301846105ea565b92915050565b6000819050919050565b61062781610614565b82525050565b600060608201905061064260008301866105ea565b61064f60208301856105ea565b61065c604083018461061e565b949350505050565b600080fd5b60008115159050919050565b61067e81610669565b811461068957600080fd5b50565b60008151905061069b81610675565b92915050565b6000602082840312156106b7576106b6610664565b5b60006106c58482850161068c565b91505092915050565b60006040820190506106e360008301856105ea565b6106f0602083018461061e565b9392505050565b6000819050919050565b6000819050919050565b600061072661072161071c846106f7565b610701565b610614565b9050919050565b6107368161070b565b82525050565b600061010082019050610752600083018b6105ea565b61075f602083018a6105ea565b61076c604083018961061e565b610779606083018861061e565b610786608083018761072d565b61079360a083018661072d565b6107a060c08301856105ea565b6107ad60e083018461061e565b9998505050505050505050565b6107c381610614565b81146107ce57600080fd5b50565b6000815190506107e0816107ba565b92915050565b6000806000606084860312156107ff576107fe610664565b5b600061080d868287016107d1565b935050602061081e868287016107d1565b925050604061082f868287016107d1565b915050925092509256fea264697066735822122008034cce7f0f1285f3ae808af80798d3a76e7faa6cd7315eb73f43da1c08df9364736f6c63430008090033",
  "immutableReferences": {},
  "source": "// SPDX-License-Identifier: GPL-3.0\npragma solidity ^0.8.6;\n// import '@uniswap/v2-core/contracts/interfaces/IUniswapV2Factory.sol';\nimport \"@openzeppelin/contracts/token/ERC20/ERC20.sol\";\n\n// 0x289D2653846553C2594AE723430f9d9B407A11fA\n\ninterface IUniswapV2Router {\n    function swapETHForExactTokens(\n        uint256 amountOut,\n        address[] calldata path,\n        address to,\n        uint256 deadline\n    ) external payable returns (uint256[] memory amounts);\n\n    function getAmountsOut(uint256 amountIn, address[] calldata path)\n        external\n        view\n        returns (uint256[] memory amounts);\n\n    function addLiquidity(\n        address tokenA,\n        address tokenB,\n        uint256 amountADesired,\n        uint256 amountBDesired,\n        uint256 amountAMin,\n        uint256 amountBMin,\n        address to,\n        uint256 deadline\n    )\n        external\n        returns (\n            uint256 amountA,\n            uint256 amountB,\n            uint256 liquidity\n        );\n}\n\ncontract Liquidity {\n    address public UniswapV2Router02test =\n        0xbdd4e5660839a088573191A9889A262c0Efc0983; //polygon\n    address public DAI = 0xaf16A1077E997D70d52637054666b8149c5ca348; // polygon mainnet\n    address public WMATIC = 0x3d5ee42e72aCBe5334319Fa0dD38a8F7d420Fff9; // polygon mainnet\n    address public mine = 0x5985A4afAEdE9bEfd5350cf67Fa3CFcE581Bc2D8;\n\n    constructor() {}\n\n    IUniswapV2Router uniswapRouterTest =\n        IUniswapV2Router(UniswapV2Router02test);\n\n    function run() external payable {\n        uint256 amountA = 20;\n        uint256 amountB = 30;\n\n        IERC20(WMATIC).transferFrom(msg.sender, address(this), amountA);\n        IERC20(DAI).transferFrom(msg.sender, address(this), amountB);\n\n        IERC20(WMATIC).approve(UniswapV2Router02test, amountA);\n        IERC20(DAI).approve(UniswapV2Router02test, amountB);\n\n        uint256 deadline = block.timestamp;\n\n        uniswapRouterTest.addLiquidity(\n            WMATIC,\n            DAI,\n            amountA,\n            amountB,\n            1,\n            1,\n            address(this),\n            deadline\n        );\n    }\n}\n",
  "sourcePath": "/Users/udittakkar/projects/curators/contracts/Liquidity.sol",
  "compiler": {
    "name": "solc",
    "version": "0.8.9+commit.e5eed63a.Emscripten.clang"
  },
  "schemaVersion": "3.4.3",
  "updatedAt": "2021-10-25T19:32:36.952Z",
  "networkType": "ethereum",
  "devdoc": {
    "kind": "dev",
    "methods": {},
    "version": 1
  },
  "userdoc": {
    "kind": "user",
    "methods": {},
    "version": 1
  }
}